:020000040800F2
:1000000000000220F92500080D2200080F22000838
:100010001122000813220008152200080000000029
:10002000000000000000000000000000172200088F
:1000300019220008000000001B2200081D220008F1
:1000400049260008492600084926000849260008D4
:1000500049260008492600084926000849260008C4
:1000600049260008492600084926000849260008B4
:1000700049260008492600084926000849260008A4
:10008000492600084926000849260008000000000B
:1000900000000000000000000000000049260008E9
:1000A0004926000849260008492600084926000874
:1000B0004926000849260008492600084926000864
:1000C0004926000849260008492600084926000854
:1000D00049260008492600084926000800000000BB
:1000E00049260008492600084926000800000000AB
:1000F0000000000000000000000000004926000889
:10010000000000004926000849260008492600088A
:1001100000000000000000000000000000000000DF
:1001200049260008492600084926000849260008F3
:100130004926000800000000000000000000000048
:100140000000000000000000000000004926000838
:1001500049260008492600084926000849260008C3
:1001600049260008492600080000000000000000A1
:10017000000000000000000000000000000000007F
:1001800000000000492600080000000000000000F8
:08019000492600084926000879
:1001980010B5054C237833B9044B13B10448AFF3B9
:1001A80000800123237010BD4000002000000000E3
:1001B8009426000808B5034B1BB103490348AFF365
:1001C800008008BD000000004400002094260008BC
:1001D80053B94AB9002908BF00281CBF4FF0FF31A6
:1001E8004FF0FF3000F072B9ADF1080C6DE904CEA4
:1001F80000F006F8DDF804E0DDE9022304B07047FA
:100208002DE9F047089E04468846002B4BD18A42C8
:10021800154667D9B2FA82F24AB1C2F1200701FA4B
:1002280002F320FA07F7954047EA030894404FEA9B
:10023800154E230CB8FBFEF71FFA85FC0EFB17883A
:1002480043EA084307FB0CF1994209D9EB1807F177
:10025800FF3080F01B81994240F21881023F2B4405
:100268005B1AA4B2B3FBFEF00EFB103344EA03445E
:1002780000FB0CFCA44509D92C1900F1FF3380F0D0
:100288000781A44540F2048102382C4440EA074023
:10029800A4EB0C0400271EB1D4400023C6E9004398
:1002A8003946BDE8F0878B4209D9002E00F0EB8073
:1002B8000027C6E9000138463946BDE8F087B3FA99
:1002C80083F7002F47D18B4202D3824200F2FA8093
:1002D800841A61EB030301209846002EE0D0C6E99A
:1002E8000048DDE702B9FFDEB2FA82F2002A40F0E8
:1002F8008F80491B4FEA154E1FFA85F80127B1FB7D
:10030800FEFC230C0EFB1C1143EA014308FB0CF115
:10031800994207D9EB180CF1FF3002D2994200F24A
:10032800CD808446591AA3B2B1FBFEF00EFB10141F
:1003380043EA044408FB00F8A04507D92C1900F14A
:10034800FF3302D2A04500F2B6801846A4EB080499
:1003580040EA0C409FE7C7F1200CBB4022FA0CFE94
:100368004EEA030E01FA07F420FA0CF521FA0CF311
:100378004FEA1E482543B3FBF8F92C0C08FB193348
:100388001FFA8EFA44EA034309FB0AF49C4202FA74
:1003980007F200FA07F10BD91EEB030309F1FF304E
:1003A80080F087809C4240F28480A9F1020973445E
:1003B8001B1BADB2B3FBF8F008FB103345EA03444E
:1003C80000FB0AFAA24508D91EEB040400F1FF332A
:1003D8006BD2A24569D90238744440EA0940A0FBAF
:1003E8000289A4EB0A044C45C2464B4654D351D06B
:1003F800002E69D0B1EB0A0564EB030404FA0CFC87
:10040800FD40FC404CEA0505C6E90054002747E7D3
:10041800C2F1200320FA03F7954001FA02F021FA0D
:1004280003F34FEA154E3843010CB3FBFEF71FFAEE
:1004380085F80EFB173341EA034107FB08F38B42AB
:1004480004FA02F407D9691807F1FF3C2FD28B424E
:100458002DD9023F2944CB1A81B2B3FBFEF00EFB23
:10046800103341EA034100FB08F38B4207D96918AE
:1004780000F1FF3C17D28B4215D902382944C91A1A
:1004880040EA07473BE73746304609E70746E7E6CD
:100498001846FBE64145ABD2B8EB020A69EB0E02FF
:1004A80001381346A4E76046E9E7184695E767462A
:1004B800D1E781467CE702382C4447E7ACF1020CCF
:1004C8002B442FE7384608E73746E9E6704700BF70
:1004D8002DE9F04782B08146884692461A460123A4
:1004E80000931F235146404601F00AFBAAF1130569
:1004F800002600270FE0B30059F8032029462046BC
:1005080001F05AFA013647F10007013408F11503E2
:10051800A342F0D801350AF11503AB4202D9A8F17C
:100528001304F3E702B0BDE8F0872DE9F0478146F0
:10053800884692461546002600270FE0B30059F872
:1005480003202946204601F037FA013647F1000713
:10055800013408F12803A342F0D801350AF1280331
:10056800AB4201D94446F4E7BDE8F087F0B583B063
:10057800032001F013F9002001F008FA4FF4FA7093
:1005880000F032F9E62300934FF49B731E220A21F0
:100598004FF6E07001F090FA02230193264B009386
:1005A80000234FF6FF720A21084601F003FC0A25D2
:1005B800002600270EE0214B53F826202946204626
:1005C80001F0FAF9013647F100070134B4F5967FD6
:1005D800F1D30135132D02D84FF48C74F6E7282394
:1005E8004F223B211648FFF773FF28234F229F21F4
:1005F8001448FFF76DFF28234F2240F203111248D9
:10060800FFF766FF2823B3223B211048FFF760FF5E
:100618002823B3229F210E48FFF75AFF2823B3222D
:1006280040F203110B48FFF753FF012204210A4847
:1006380000F039FA03B0F0BD2CDC0308AC26000842
:100648000C820308CC620308CC490308CC300308A9
:10065800CC170308CCFE02080000024010B582B097
:10066800002001F093F94FF4FA7000F0BDF8E6238A
:1006780000934FF49B731E220A214FF6E07001F09D
:100688001BFA02240194174B009300234FF6FF72C4
:100698002821142001F08EFB0194134B00930023B2
:1006A8004FF6FF723C21142001F084FB01940F4B9C
:1006B800009300234FF6FF725021142001F07AFBBB
:1006C80001940B4B009300234FF6FF726421142012
:1006D80001F070FBC82200210648FFF726FF02B090
:1006E80010BD00BF38DC030844DC030864DC0308E1
:1006F80088DC0308CCE5020838B5002514E005EBD2
:1007080085039A01224453000D490133CB5C11F84B
:1007180012202946204601F09DFB0134A4B2B4F50D
:10072800A07FECD30135ADB2B5F58C7F01D20024A2
:10073800F5E7C82200210348FFF7F7FE38BD00BFE0
:10074800CC290008CCE5020810B504460E4B1878F1
:100758004FF47A73B3FBF0F30C4A1068B0FBF3F074
:1007680000F09CF868B90F2C01D901200AE000229A
:1007780021464FF0FF3000F05DF8034B5C6000202D
:1007880000E0012010BD00BF000000201000002084
:1007980008B50B4B1A6842F400721A601A6842F4E2
:1007A80080621A601A6842F480721A60032000F0AE
:1007B8002FF80020FFF7C8FF01F0B2FC002008BDA9
:1007C800003C0240034A1168034B1B780B4413603A
:1007D800704700BFB800002000000020014B1868D7
:1007E800704700BFB800002038B50446FFF7F6FF91
:1007F8000546B4F1FF3F02D0044B1B781C44FFF7B9
:10080800EDFF401BA042FAD338BD00BF0000002016
:10081800074AD36823F4E0631B041B0C000200F4AE
:10082800E060184340F0BF6040F40030D06070478B
:1008380000ED00E030B4174BDB68C3F30223C3F1CB
:100848000704042C28BF04241D1D062D18D9033BBA
:100858004FF0FF3505FA04F421EA0401994005FA3E
:1008680003F322EA0303194300280BDB0901C9B289
:1008780000F1604000F5614080F8001330BC70471B
:100888000023E5E700F00F000901C9B2024B195433
:10089800F4E700BF00ED00E014ED00E00138B0F12E
:1008A800807F0AD2064B5860064AF02182F823104E
:1008B8000020986007221A6070470120704700BF27
:1008C80010E000E000ED00E0042805D0054A1368B8
:1008D80023F0040313607047024A136843F00403CB
:1008E8001360704710E000E0704708B5FFF7FCFFA1
:1008F80008BD000000230F2B00F2C580F0B482B0C1
:1009080039E0042200E00022B2403A4302345E4E4D
:1009180046F824205D4A1468EA4302EA04064F6850
:1009280017F4803F01D045EA0406584C26606468F5
:1009380002EA04064F6817F4003F01D045EA0406AE
:10094800524C6660A46802EA04064F6817F4801FD8
:1009580001D045EA04064D4CA660E46822404E6882
:1009680016F4001F01D045EA0402484CE260013346
:100978000F2B00F2858001229A400C6804EA0205D8
:10098800AA42F4D14C68022C01D0122C10D1DE08F6
:10099800083650F826C003F00704A7000F24BC400F
:1009A8002CEA040C0C69BC4044EA0C0440F82640CC
:1009B80004685F000326BE40F64306EA040C4C6850
:1009C80004F00304BC4044EA0C0404604C6804F1DD
:1009D800FF3CBCF1010F03D9112C01D0122C10D10E
:1009E800846806EA040CCC68BC4044EA0C048460C1
:1009F800446824EA02024C68C4F300149C4014437F
:100A08004460C26816408A68BA403243C2604A6885
:100A180012F0805FABD0002201921D4A546C44F45E
:100A280080445464526C02F480420192019A9C08FA
:100A3800A61C154A52F8267003F0030296000F22EE
:100A4800B24027EA0207134A90423FF45CAF02F52E
:100A5800806290420ED002F5806290420CD002F57E
:100A6800806290420AD002F5806290423FF449AF1A
:100A7800072249E7012247E7022245E7032243E725
:100A880002B0F0BC7047704700380140003C01409C
:100A980000380240000002400369194201D10020D9
:100AA80070470120704712B909048161704781615C
:100AB80070470000002800F0BB8170B582B0044682
:100AC800036813F0010F3BD0A74B9B6803F00C039E
:100AD800042B2CD0A44B9B6803F00C03082B21D0CB
:100AE8006368B3F5803F4FD0B3F5A02F52D09E4B2B
:100AF8001A6822F480321A601A6822F480221A6076
:100B08006368002B50D0FFF769FE0546964B1B68BB
:100B180013F4003F14D1FFF761FE401B6428F5D998
:100B280003208AE1904B5B6813F4800FD8D08E4B7A
:100B38001B6813F4003F03D06368002B00F07A8130
:100B4800236813F0020F55D0874B9B6813F00C0FE6
:100B58003ED0854B9B6803F00C03082B33D0E36829
:100B6800002B68D0814B01221A60FFF737FE05463B
:100B78007D4B1B6813F0020F54D1FFF72FFE401B6B
:100B88000228F5D9032058E1774A136843F48033E3
:100B98001360B5E7744B1A6842F480221A601A6829
:100BA80042F480321A60ABE7FFF718FE05466E4B39
:100BB8001B6813F4003FC3D0FFF710FE401B6428E6
:100BC800F5D9032039E1684B5B6813F4800FC6D16F
:100BD800654B1B6813F0020F04D0E368012B01D0AA
:100BE80001202AE1604A136823F0F803216943EAE7
:100BF800C1031360236813F0080F40D0636963B31F
:100C08005B4B01221A60FFF7E9FD0546564B5B6F07
:100C180013F0020F33D1FFF7E1FD401B0228F5D98D
:100C280003200AE1504A136823F0F803216943EAD4
:100C3800C1031360DEE74D4B00221A60FFF7CEFDBB
:100C48000546494B1B6813F0020FD3D0FFF7C6FDCA
:100C5800401B0228F5D90320EFE0454B00221A601B
:100C6800FFF7BCFD0546404B5B6F13F0020F06D043
:100C7800FFF7B4FD401B0228F5D90320DDE0236807
:100C880013F0040F79D0384B1B6C13F0805F33D10D
:100C980000230193344B1A6C42F080521A641B6C87
:100CA80003F080530193019B0125324B1B6813F419
:100CB800807F23D0A368012B34D0052B38D02A4B52
:100CC8001A6F22F001021A671A6F22F004021A67DB
:100CD800A368002B36D0FFF781FD0646224B1B6F19
:100CE80013F0020F48D1FFF779FD801B41F28833DA
:100CF8009842F3D90320A0E00025D6E71D4A1368DF
:100D080043F480731360FFF769FD0646194B1B68AF
:100D180013F4807FCED1FFF761FD801B0228F5D93F
:100D280003208AE0104A136F43F001031367CFE7EB
:100D38000D4B1A6F42F004021A671A6F42F0010253
:100D48001A67C5E7FFF74AFD0646074B1B6F13F006
:100D5800020F11D0FFF742FD801B41F28833984201
:100D6800F3D9032069E000BF003802400000474281
:100D7800800E474200700040E5B9A369002B5BD0A4
:100D8800304A926802F00C02082A58D0022B17D079
:100D98002D4B00221A60FFF721FD0446294B1B68E2
:100DA80013F0007F42D0FFF719FD001B0228F5D988
:100DB800032042E0234A136C23F080531364DCE7DA
:100DC800214B00221A60FFF709FD05461D4B1B68E1
:100DD80013F0007F06D0FFF701FD401B0228F5D96C
:100DE80003202AE0E369226A1343626A43EA821312
:100DF800A26A5208013A43EA0243E26A43EA0263FA
:100E0800104A5360104B01221A60FFF7E7FC0446B2
:100E18000C4B1B6813F0007F06D1FFF7DFFC001BAB
:100E28000228F5D9032008E0002006E0002004E0AD
:100E380001207047012000E0002002B070BD0120B1
:100E4800FBE700BF0038024060004742324B9B6816
:100E580003F00C03042B5CD0082B01D02F487047FB
:100E68002DE9F04B2C4B5A6802F03F025B6813F4F3
:100E7800800F2BD0284B5B68C3F388131E460027CE
:100E88005C010025E41A65EB0705A90141EA9461B4
:100E9800A001001B61EB0501CB0043EA5073C400BD
:100EA800A01943EB07014B0243EAD0534402204602
:100EB80019460023FFF78CF9174B5B68C3F301430E
:100EC80001335B00B0FBF3F0BDE8F08B124B5B68BD
:100ED800C3F388131E4600275C010025E41A65EB5E
:100EE8000705A90141EA9461A001001B61EB050116
:100EF800CB0043EA5073C400A01943EB07018B02EF
:100F080043EA90538402204619460023FFF760F90C
:100F1800D2E70348704700BF003802400024F400BD
:100F280000127A00002800F09D8070B504464F4BEF
:100F38001B6803F00F038B4209D2CBB24B4A1370E4
:100F4800136803F00F038B4201D0012070BD2368A2
:100F580013F0020F17D013F0040F04D0444A93681B
:100F680043F4E0539360236813F0080F04D0404A19
:100F7800936843F4604393603D4A936823F0F00319
:100F8800A068034393600D46236813F0010F32D025
:100F98006368012B21D09A1E012A25D9344A126888
:100FA80012F0020F60D032498A6822F0030213431C
:100FB8008B60FFF713FC06462D4B9B6803F00C0370
:100FC8006268B3EB820F16D0FFF708FC801B41F272
:100FD80088339842F0D90320B8E7254A126812F4FA
:100FE800003FE0D10120B1E7214A126812F0007FEA
:100FF800D9D10120AAE71D4B1B6803F00F03AB42B0
:1010080009D9EAB2194B1A701B6803F00F03AB42F7
:1010180001D001209AE7236813F0040F06D0144A80
:10102800936823F4E053E1680B439360236813F05B
:10103800080F07D00E4A936823F46043216943EAF6
:10104800C1039360FFF702FF094B9B68C3F30313C7
:10105800084AD35CD840084B18600020FFF774FB9F
:10106800002073E70120704701206FE7003C024031
:101078000038024014DC030810000020014B1868F7
:10108800704700BF10000020F8B505460F46164609
:101098001C463BE02CB1FFF7A1FB069BC01AA042FF
:1010A80034D32A68536823F0E00353606B68B3F5C0
:1010B800827F0BD0AB6AB3F5005F14D0012385F8AB
:1010C8005130002385F85030032027E0AB68B3F592
:1010D800004F02D0B3F5806FECD12A68136823F073
:1010E80040031360E6E72A68136823F400531B04DF
:1010F8001B0C13602A68136843F400531360DDE780
:101108000123B34209D0B4F1FF3FC3D12B689B68D8
:1011180037EA0303F4D00023F3E70020F8BD10B545
:1011280082B0044600920B4600228021FFF7ACFFF4
:10113800034610B9184602B010BD636D43F0200392
:1011480063650323F6E700283BD010B50446002367
:10115800836290F85130002B2ED0022384F851304E
:101168002268136823F0400313606368A26813437E
:10117800E26813432269134362691343A26902F4C4
:1011880000721343E2691343226A1343A16A226877
:101198000B431360638B03F00403616A22680B43FB
:1011A80053602268D36923F40063D361002060652B
:1011B800012384F8513010BD80F8503000F0FAFF58
:1011C800CBE7012070472DE9F04184B01E4690F826
:1011D8005030012B00F0C88004460D46904601238C
:1011E80080F85030FFF7FAFA074694F85130DBB22E
:1011F800012B0AD00223012284F85120002284F80E
:101208005020184604B0BDE8F081002D00F0A480FD
:10121800B8F1000F00F0A280032384F851300023B6
:1012280063652563A4F83480A4F83680A363A38794
:10123800E38763642364A368B3F5004F1BD0236876
:101248001A6812F0400F03D11A6842F040021A607F
:10125800E368B3F5006F14D063681BB1E38E9BB2EB
:10126800012B3ED1236815F8012B1A73E38E013B3D
:101278009BB2E38635E02268136843F48043136029
:10128800DDE763681BB1E38E9BB2012B0DD12368A8
:1012980035F8022BDA60E38E013B9BB2E38604E06B
:1012A800002E5DD0B6F1FF3F0FD1E38E9BB27BB32A
:1012B80023689A6812F0020FF2D035F8022BDA6030
:1012C800E38E013B9BB2E386EFE7FFF787FAC01B8B
:1012D800B042EAD303238EE7002E43D0B6F1FF3F96
:1012E8000FD1E38E9BB29BB123689A6812F0020F6C
:1012F800F2D015F8012B1A73E38E013B9BB2E386FB
:10130800EFE7FFF76BFAC01BB042EAD3032372E79B
:1013180000973346012202212046FFF7B5FE08B1A7
:10132800032368E73A4631462046FFF7F8FE0346AE
:1013380018B12023636501235DE7A26832B90392DF
:101348002268D168039192680392039A626D002A19
:101358003FF451AF01234EE701234CE701234AE74D
:10136800032348E7032346E702234AE708B50E4864
:101378000E4B03604FF48273436000238360C360A5
:10138800036143614FF400728261C3610362436287
:1013980083620A23C362FFF7D6FE00B908BDA821FD
:1013A800034800F0CDFDF9E75C0000200030014063
:1013B800ACDC030810B5064C002202212046FFF7DA
:1013C80072FB002204212046FFF76DFB10BD00BF11
:1013D8000000024010B5064C012202212046FFF70A
:1013E80062FB002204212046FFF75DFB10BD00BF11
:1013F8000000024000B583B002A901F8010D0123E5
:101408001A460348FFF7DFFE03B05DF804FB00BF90
:101418005C00002010B50446FFF7CCFF2046FFF71C
:10142800E9FF10BD10B50446FFF7D4FF2046FFF7CB
:10143800E1FF10BD2DE9F0410F46060AC4B2444D44
:10144800002204212846FFF72EFB0022022128460D
:10145800FFF729FB2C20FFF7CDFF012202212846A8
:10146800FFF721FB3046FFF7C5FF2046FFF7C2FF15
:10147800013FC7F38F13A6424FD11DE01025204628
:10148800FFF7B8FF2046FFF7B5FF2046FFF7B2FF8A
:101498002046FFF7AFFF2046FFF7ACFF2046FFF7D7
:1014A800A9FF2046FFF7A6FF2046FFF7A3FF6B1E04
:1014B80013F0FF05E3D133465A1E96B2002BDDD157
:1014C80007F03F0706E02046FFF794FF2046FFF7A6
:1014D80091FF2F467B1EDDB2002FF4D130E010259E
:1014E8003046FFF787FF2046FFF784FF3046FFF7B7
:1014F80081FF2046FFF77EFF3046FFF77BFF20463F
:10150800FFF778FF3046FFF775FF2046FFF772FFB9
:101518006B1E13F0FF05E3D143465A1E1FFA82F8EB
:10152800002BDCD107F03F0706E03046FFF762FFEB
:101538002046FFF75FFF2F467B1EDDB2002FF4D158
:10154800012204210248FFF7AEFABDE8F08100BF8E
:101558000000024010B50F4C002201212046FFF781
:10156800A2FA3220FFF740F9012211462046FFF780
:101578009AFA002204212046FFF795FA3220FFF755
:1015880033F90120FFF746FF012204212046FFF727
:101598008AFA10BD0000024008B5FFF7E7FEFFF722
:1015A800D9FF0120FFF736FFCB20FFF733FF3920A3
:1015B800FFF738FF2C20FFF735FF0020FFF732FF39
:1015C8003420FFF72FFF0220FFF72CFFCF20FFF773
:1015D80021FF0020FFF726FFC120FFF723FF30205F
:1015E800FFF720FFE820FFF715FF8520FFF71AFF18
:1015F8000020FFF717FF7820FFF714FFEA20FFF716
:1016080009FF0020FFF70EFF0020FFF70BFFED207A
:10161800FFF700FF6420FFF705FF0320FFF702FF35
:101628001220FFF7FFFE8120FFF7FCFEF720FFF7EF
:10163800F1FE2020FFF7F6FEC020FFF7EBFE10209A
:10164800FFF7F0FEC120FFF7E5FE1020FFF7EAFEE6
:10165800C520FFF7DFFE3E20FFF7E4FE2820FFF756
:10166800E1FEC720FFF7D6FE8620FFF7DBFE362017
:10167800FFF7D0FE4820FFF7D5FE3A20FFF7CAFE55
:101688005520FFF7CFFEB120FFF7C4FE0020FFF77B
:10169800C9FE1820FFF7C6FEB620FFF7BBFE0820DC
:1016A800FFF7C0FE8220FFF7BDFE2720FFF7BAFE36
:1016B800F220FFF7AFFE0020FFF7B4FE2620FFF769
:1016C800A9FE0120FFF7AEFEE020FFF7A3FE0F20E2
:1016D800FFF7A8FE3120FFF7A5FE2B20FFF7A2FE9B
:1016E8000C20FFF79FFE0E20FFF79CFE0820FFF757
:1016F80099FE4E20FFF796FEF120FFF793FE372064
:10170800FFF790FE0720FFF78DFE1020FFF78AFEF7
:101718000320FFF787FE0E20FFF784FE0920FFF75E
:1017280081FE0020FFF77EFEE120FFF773FE002018
:10173800FFF778FE0E20FFF775FE1420FFF772FE04
:101748000320FFF76FFE1120FFF76CFE0720FFF75D
:1017580069FE3120FFF766FEC120FFF763FE4820CF
:10176800FFF760FE0820FFF75DFE0F20FFF75AFE27
:101778000C20FFF757FE3120FFF754FE3620FFF705
:1017880051FE0F20FFF74EFE1120FFF743FE2920E0
:10179800FFF740FE2C20FFF745FE08BD10B50446B4
:1017A8003620FFF737FE032C0CD8DFE804F0020CD4
:1017B80016204820FFF736FE124BF0221A604FF42D
:1017C800A0725A6010BD2820FFF72CFE0D4B4FF475
:1017D800A0721A60F0225A60F4E78820FFF722FE10
:1017E800084BF0221A604FF4A0725A60EAE7E8202A
:1017F800FFF718FE034B4FF4A0721A60F0225A60EC
:10180800E0E700BF0800002070B506460C46114D01
:10181800002204212846FFF746F900220221284623
:10182800FFF741F93046FFF7E5FD0122022128467E
:10183800FFF739F9200EFFF7DDFDC4F30740FFF786
:10184800D9FDC4F30720FFF7D5FDE0B2FFF7D2FDBD
:1018580070BD00BF0000024038B50D461C4642EA84
:1018680000412A20FFF7D0FF44EA05412B20FFF76B
:10187800CBFF38BD2DE9F04116461F469DF818509C
:101888009DF81C30012B03D0022B3DD0BDE8F08120
:1018980001F10803421DFFF7DFFF3A4C0022022145
:1018A8002046FFF700F92C20FFF7A4FD01220221B2
:1018B8002046FFF7F8F84FF0000820E0C7F30720AC
:1018C800FFF798FDF8B2FFF795FD0134072C14DCFB
:1018D800A5F120032C4A02EBC30313F80830C4F126
:1018E8000702134113F0010FE8D0C6F30720FFF7F2
:1018F80081FDF0B2FFF77EFDE7E708F10108B8F1D6
:10190800070FC3DC0224E1E701F11003C21DFFF752
:10191800A3FF1C4C002202212046FFF7C4F82C200C
:10192800FFF768FD012202212046FFF7BCF84FF0BF
:10193800000821E0C7F30720FFF75CFDF8B2FFF7C6
:1019480059FD0134072C15DCA5F120030E4A02EBE2
:101958000313434493F8D832C4F10702134113F038
:10196800010FE7D0C6F30720FFF744FDF0B2FFF7F9
:1019780041FDE6E708F10108B8F10F0F86DC002405
:10198800E0E700BF000002404CD3030838B5054625
:10199800084C63682268013B013A00210846FFF7BA
:1019A8005BFF2368616801FB03F1A8B2FFF742FD02
:1019B80038BD00BF08000020002825DB002923DBF4
:1019C80038B5124B1D68A84202D25B68994200D311
:1019D80038BD1446013B6A1EFFF73EFF0C4D00223E
:1019E80002212846FFF75FF82C20FFF703FD0122AC
:1019F80002212846FFF757F8C4F30720FFF7FAFC3F
:101A0800E0B2FFF7F7FCE3E7704700BF08000020EB
:101A1800000002402DE9F04F83B000900C461646B6
:101A280098460C9BA3EB0209B9F1000FB8BFC9F1A6
:101A38000009A8EB010ABAF1000FB8BFCAF1000A01
:101A4800D14506DD0AB20FFA88F198460B463446AE
:101A58001646444505D922B231B21E460B464446C5
:101A68009046A8EB040B9F1B002FB8BF7F420BEBDF
:101A7800DB756D109E4219D34FF0FF33019307E0D9
:101A8800009A31462046FFF797FFED1B0AD4013430
:101A980044450ED8D145F3DD009A21463046FFF77C
:101AA8008BFFF2E7019B1E445D46F0E7012301939B
:101AB800EEE703B0BDE8F08F2DE9F04182B00546AE
:101AC8000E4690461F46089C0092FFF7A3FF00941D
:101AD8003B46424639462846FFF79CFF009433466A
:101AE800424631462846FFF795FF00943B4622467A
:101AF80031462846FFF78EFF02B0BDE8F0810000AE
:101B08002DE9F04F87B08246884616461C469DF858
:101B18004010C2F1010BC2EBC272530002930029BC
:101B280066D1224606EB0801FFF746FF2246A8EBDE
:101B380006015046FFF740FF2246414606EB0A00E1
:101B4800FFF73AFF22464146AAEB0600FFF734FFAB
:101B580000254FF0010900943EE0013509F1020922
:101B6800CB4405EB0A0706EB0803009A01931946D4
:101B78003846FFF721FFAAEB0504009A0199204691
:101B8800FFF71AFFA8EB0603009A01931946384697
:101B9800FFF712FF009A01992046FFF70DFF06EBA9
:101BA8000A0405EB0807009A39462046FFF704FFA8
:101BB800AAEB0603009A394601931846FFF7FCFE84
:101BC800A8EB0507009A39462046FFF7F5FE009A6C
:101BD80039460198FFF7F0FEB54280F2E580BBF187
:101BE800000FBADB013E029B023302939B44B4E729
:101BF800224606EB0801FFF7DFFE2246A8EB0601A6
:101C08005046FFF7D9FE434606EB0A024146AAEBC7
:101C18000600FFF721FE664D002202212846FEF746
:101C280042FF2C20FFF7E6FB012202212846FEF79F
:101C38003AFF002507E0C4F30720FFF7DBFBE0B21B
:101C4800FFF7D8FB013573000133AB42F3D84FF0EF
:101C5800000901230393CDF8008077E0C4F307203F
:101C6800FFF7C8FBE0B2FFF7C5FB01374FEA4905AC
:101C78000135BD42F2D8009BA3EB08010B46059A3B
:101C88000498FFF7E9FD4A4F002202213846FEF783
:101C98000AFF2C20FFF7AEFB012202213846FEF78F
:101CA80002FF002707E0C4F30720FFF7A3FBE0B219
:101CB800FFF7A0FB0137BD42F5D8AAEB0800049056
:101CC800019B009A9918D0440B464246FFF7C4FD81
:101CD800374D002202212846FEF7E5FE2C20FFF7AB
:101CE80089FB012202212846FEF7DDFE002707E0D6
:101CF800C4F30720FFF77EFBE0B2FFF77BFB013759
:101D080075000135BD42F3D8009B019A991A0B461C
:101D180042460498FFF7A0FD254F002202213846CD
:101D2800FEF7C1FE2C20FFF765FB01220221384691
:101D3800FEF7B9FE002707E0C4F30720FFF75AFBB8
:101D4800E0B2FFF757FB0137BD42F5D8B1452BDAB2
:101D5800BBF1000F04DB013E029B023302939B445C
:101D680009F10109039B023303939B44CDF80490C6
:101D7800AAEB09000490B046009BF11809EB0A028F
:101D880005920B46FFF768FD094D002202212846FF
:101D9800FEF789FE2C20FFF72DFB012202212846A1
:101DA800FEF781FE002761E707B0BDE8F08F00BFAE
:101DB800000002402DE9F04F83B004460F469246DA
:101DC8009B460C9D9DF83480C146B8F1010F11D097
:101DD800B8F1020F1BD003B0BDE8F08FCDF8048036
:101DE80000935B46524639462046FFF743FD34448C
:101DF800023C01352B78002BEDD04FEAC90631198A
:101E0800124A12689142E9D937440124E6E7104B97
:101E180001221A700DE0CDF8048000935B4652460B
:101E280039462046FFF726FD094B1B7804EBC3040F
:101E380001352B78002BCED04FEAC902101903497F
:101E480009688842E7D917440124E4E7080000201C
:101E5800BC000020002825DB002923DBF8B5124C44
:101E68002668B04202D26768B94200D3F8BD1D4661
:101E780014467B1E721EFFF7EFFC0C4E0022022157
:101E88003046FEF710FE2C20FFF7B4FA012202219B
:101E98003046FEF708FEE0B2FFF7ACFAE8B2FFF70B
:101EA800A9FAE3E7704700BF0800002000000240DD
:101EB80000B58BB0002200921F4B196B41F0010155
:101EC8001963196B01F00101009100990192196BD6
:101ED80041F002011963196B01F0020101910199A6
:101EE8000292196B41F004011963196B01F00401A6
:101EF800029102990392196B41F008011963196B59
:101F080001F00801039103990492196B41F0100143
:101F180019631B6B03F010030493049B07230593B9
:101F2800012306930792089205A90448FEF7E2FCEC
:101F38000BB05DF804FB00BF00380240000002400F
:101F4800FEE7000000B595B0002301932A4A116C02
:101F580041F080511164126C02F080520192019A92
:101F68000293264A116841F440411160126802F454
:101F780040420292029A0222089201210B911021FA
:101F88000C910E920F9308231093C02211920422F1
:101F98001292139308A8FEF78DFD20BB0F2303931D
:101FA80002230493002305934FF4A05306934FF4A0
:101FB80080530793032103A8FEF7B4FFB8B9FFF7CE
:101FC8005DF80F4BA3FB00308009FEF767FC042087
:101FD800FEF77AFC002211464FF0FF30FEF72AFC8C
:101FE80015B05DF804FB9F210648FFF7A9FFAD2156
:101FF8000448FFF7A5FF00BF00380240007000400A
:10200800D34D6210C8DC030838B5FEF7C1FBFFF7F3
:1020180099FFFFF74DFFFFF7BFFA0020FFF7BEFB60
:102028004FF4FA70FEF7E0FB4FF47840FFF7AEFC90
:102038004FF4FA70FEF7D8FB4FF4FC60FFF7A6FCEC
:102048004FF4FA70FEF7D0FB1F20FFF79FFC4FF408
:10205800FA70FEF7C9FB0020FFF798FC4FF4FA70FE
:10206800FEF7C2FBFEF782FA00F000F916E0FEF771
:1020780043FB294B01221A7033E0A4F64954A4B259
:10208800B4F5F97F06D8B0F5AF7F03D940F2ED2358
:1020980098423BD94FF4FA70FEF7A6FB1F4C6368D1
:1020A8000020984794F91030002BF7DAD02000F080
:1020B80089F90446902000F085F90546164B1B78EF
:1020C800002BDAD1A4F68D239BB240F2BA229342B8
:1020D80007D840F6B833984203D940F6AB53984234
:1020E800C5D9A4F2B144A4B240F2BA239C42D1D8D3
:1020F80040F6B8339D42CDD940F6AB539D42C9D87E
:10210800FEF7ACFA044B01221A70C3E7FEF72EFA69
:10211800014B00221A70BDE7B4000020180000200F
:1021280010B582B000240094214B5A6C42F48042CE
:102138005A645A6C02F480420092009A01941A6C14
:1021480042F080521A641B6C03F080530193019B88
:102158000720FEF75DFB224621466FF00B00FEF7D5
:1021680069FB224621466FF00A00FEF763FB224610
:1021780021466FF00900FEF75DFB224621466FF00D
:102188000400FEF757FB224621466FF00300FEF7D6
:1021980051FB224621466FF00100FEF74BFB224619
:1021A80021464FF0FF30FEF745FB02B010BD00BFDF
:1021B800003802400268114B9A4200D0704700B5BF
:1021C80087B00021009103F584335A6C42F48052A1
:1021D8005A645B6C03F480530093009BA023019323
:1021E800022302930391032304930523059301A972
:1021F8000348FEF77FFB07B05DF804FB00300140A1
:10220800000002407047FEE7FEE7FEE7FEE7704782
:102218007047704708B5FEF7D5FAFEF766FB08BDAC
:102228000F49D1F8883043F47003C1F888300D4B5A
:102238001A6842F001021A60002098601A6822F0B9
:10224800847222F480321A60074A5A601A6822F4AB
:1022580080221A60D8604FF000638B60704700BF1F
:1022680000ED00E0003802401030002470B586B060
:102278000623019300240294039404940C4E01A9AC
:102288003046FEF737FB0125019502950394049427
:1022980001A93046FEF72EFB3023019302950394E3
:1022A800049401A90348FEF725FB284606B070BD33
:1022B800000402400008024070B50546002416E0FC
:1022C800012210211048FEF7EEFB6D00EDB20F4E13
:1022D800002201213046FEF7E6FB0120FEF784FAD2
:1022E800012211463046FEF7DEFB0134E4B2072C2A
:1022F80008D815F0800FE3D1002210210248FEF71C
:10230800D2FBE2E770BD00BF0008024000040240B3
:1023180070B50646294C002201212046FEF7C3FB72
:10232800274D002210212846FEF7BDFB0022202160
:102338002846FEF7B8FB3046FFF7BEFF0620FEF73B
:1023480053FA002201212046FEF7ADFB0120FEF7DB
:102358004BFA012211462046FEF7A5FB0120FEF7A5
:1023680043FA002201212046FEF79DFB0024254662
:1023780001E00135EDB20F2D18D86400A4B20F4E5C
:10238800002201213046FEF78EFB0120FEF72CFAD1
:10239800012211463046FEF786FB04213046FEF73F
:1023A8007BFB0028E5D00134A4B2E2E7240901222E
:1023B80020210348FEF777FB204670BD0004024049
:1023C8000008024030B585B00546002409E02846DB
:1023D800FFF79EFF04AB03EB440323F80C0C013416
:1023E800A4B2042CF3D900201BE001339BB2042BC8
:1023F80016D804AA02EB400232F80C2C04A901EB0F
:10240800430131F80C1C8A42EFD904AD05EB4005B5
:1024180025F80C1C04A901EB430121F80C2CE4E776
:102428002046032803D8441CA4B22346DFE7002033
:10243800012308E004AA02EB430232F80C2C1044F2
:1024480080B201339BB2032BF4D9034BA3FB0030BA
:10245800C0F34F0005B030BDABAAAAAAF8B506462E
:102468000D46064C2078FFF7ADFF07466078FFF76A
:10247800A9FF378028800120F8BD00BF1400002084
:1024880070B582B005460C4601A90DF10600FFF7AC
:10249800E5FF034610B9184602B070BD69460DF154
:1024A8000200FFF7DBFF03460028F4D0BDF8022046
:1024B800BDF806309A4203D802F132018B4205DB9F
:1024C8009A421ED303F132018A421CDABDF8000099
:1024D800BDF80410884203D800F13206B14204DB8B
:1024E800884212D33231884211DA13445B102B80B0
:1024F800BDF80430BDF8002013445B10238001238D
:10250800C9E70023C7E70023C5E70023C3E7002383
:10251800C1E7000010B5044602213348FEF7BCFAB3
:10252800002849D194B1314800F112011030FFF769
:10253800A7FF2E4B93F91430002B4ADB2B4BC022FC
:102548001A751A8A9A815A8ADA8142E0274800F174
:1025580012011030FFF794FF0028EAD0234B93EDC7
:10256800067A1A8A07EE902AF8EEE77A27EE877A33
:10257800B3F9202007EE902AF8EEE77A77EE877A0B
:10258800FCEEE77A17EE902A1A8293ED077A5A8AB8
:1025980007EE902AF8EEE77A27EE877AB3F9222039
:1025A80007EE902AF8EEE77A77EE877AFCEEE77A7C
:1025B80017EE902A5A82BCE70C4B1B7D13F0800F54
:1025C8000CD10A4B00229A81DA814FF6FF721A82E7
:1025D8005A82064B187D00F0800010BD03F07F037F
:1025E800024A1375F5E700BF0004024014000020FA
:1025F800DFF834D0002103E00C4B5B584350043122
:102608000B480C4B42189A42F6D30B4A02E00023BF
:1026180042F8043B094B9A42F9D3FFF701FE00F058
:1026280011F8FFF7F1FC704700000220E8DC03080E
:10263800000000204000002040000020C0000020D2
:10264800FEE7000070B50D4E0D4CA41BA41000252C
:10265800A54209D10B4E0C4C00F018F8A41BA4108D
:102668000025A54205D170BD56F82530984701359B
:10267800EEE756F8253098470135F2E7E0DC030825
:10268800E0DC0308E0DC0308E4DC0308F8B500BF7D
:10269800F8BC08BC9E467047F8B500BFF8BC08BC3B
:0426A8009E46704793
:1026AC00FFFF0000FFFF0000FFFF0000FFFF000026
:1026BC00FFFF0000FFFF0000FFFF0000FFFF000016
:1026CC00FFFF0000FFFF0000FFFF0000FFFF000006
:1026DC00FFFF0000FFFF0000FFFF0000FFFF0000F6
:1026EC00FFFF0000000000000000000000000000E0
:1026FC00FFFF0000000000000000000000000000D0
:10270C00FFFF0000000000000000000000000000BF
:10271C00FFFF0000000000000000000000000000AF
:10272C00FFFF00000000000000000000000000009F
:10273C00FFFF00000000000000000000000000008F
:10274C00FFFF00000000000000000000000000007F
:10275C00FFFF00000000000000000000000000006F
:10276C00FFFF00000000000000000000000000005F
:10277C00FFFF00000000000000000000000000004F
:10278C00FFFF0000FFFF0000000000000000000041
:10279C00FFFF00000000000000000000000000002F
:1027AC00FFFF00000000000000000000000000001F
:1027BC00FFFF00000000000000000000000000000F
:1027CC00FFFF0000000000000000000000000000FF
:1027DC00FFFF0000FFFF00000000000000000000F1
:1027EC00FFFF0000000000000000000000000000DF
:1027FC00FFFF0000000000000000000000000000CF
:10280C00FFFF0000000000000000000000000000BE
:10281C00FFFF0000000000000000000000000000AE
:10282C00FFFF0000FFFF0000FFFF0000FFFF0000A4
:10283C00FFFF00000000000000000000000000008E
:10284C00FFFF00000000000000000000000000007E
:10285C00FFFF00000000000000000000000000006E
:10286C00FFFF00000000000000000000000000005E
:10287C00FFFF0000FFFF0000FFFF0000FFFF000054
:10288C00FFFF00000000000000000000000000003E
:10289C00FFFF00000000000000000000000000002E
:1028AC00FFFF00000000000000000000000000001E
:1028BC00FFFF00000000000000000000000000000E
:1028CC00FFFF0000FFFF0000000000000000000000
:1028DC00FFFF0000000000000000000000000000EE
:1028EC00FFFF0000000000000000000000000000DE
:1028FC00FFFF0000000000000000000000000000CE
:10290C00FFFF0000000000000000000000000000BD
:10291C00FFFF0000FFFF00000000000000000000AF
:10292C00FFFF00000000000000000000000000009D
:10293C00FFFF00000000000000000000000000008D
:10294C00FFFF00000000000000000000000000007D
:10295C00FFFF00000000000000000000000000006D
:10296C00FFFF00000000000000000000000000005D
:10297C00FFFF0000FFFF0000FFFF0000FFFF000053
:10298C00FFFF0000FFFF0000FFFF0000FFFF000043
:10299C00FFFF0000FFFF0000FFFF0000FFFF000033
:1029AC00FFFF0000FFFF0000FFFF0000FFFF000023
:1029BC00FFFF00000000000000000000000000000D
:1029CC001CB714B714B71CB81CB71CB81CB81CB770
:1029DC001CB81CB81CB81CB81CB81CB81CB81CB84B
:1029EC001CB81CB81CB81CB814B714B71CB81CB84D
:1029FC001CB81CB81CB81CB81CB71CB71CB71CB72F
:102A0C002CB834B844D754B754D83C971CB71CB71F
:102A1C0024B724B724B724B724B7249724972C972A
:102A2C002C7724762C762C762C762C762C962C9750
:102A3C002CB72CB72CB72CB72CD82CD82CB82CD80E
:102A4C002CD824D824D724D72CD72CD72CD734B790
:102A5C003CD83CD83CD82CB724B724D824B724B7BE
:102A6C0024D724D724B724B724B724B72CB744D7FA
:102A7C00551834B72CB724D724D724D724D734B738
:102A8C0034D834D834D82CD734B73CB64CF65D385F
:102A9C00553834D62CB72CB72CB72CD734B82CB718
:102AAC0034B734D744D74CD754F83CD834B734B7B0
:102ABC0034B734B72CB72CB72CB72CB72CB72CB7E2
:102ACC0044D754F75D3755383CD734B734D734D75F
:102ADC0034D734D734D73CD73CD73CF744F744F7FA
:102AEC0044F74CF744F744F744F744F744F744F7FA
:102AFC0044F744F744F744F744F744F744F744F7F2
:102B0C0044F744D744D73CD73CD73CD73CD73CD7E9
:102B1C003CD734D734D734D734D734D734D734B66A
:102B2C0034B634B634D73CD734B734B734B734D7DB
:102B3C0034D734D734D734D734B734D734B634B693
:102B4C003CB63CB734D734D734B63CD73CB73CB79B
:102B5C003CD734D73CD73CD73CB73CD73CB73CB63A
:102B6C0044B744B744B73CD73CB73CB73CB63CB78A
:102B7C003CB73CB73CB63CB73CB73CB73CB63CB7B3
:102B8C003CB73CB73CD73CB73CB63CB63CB73CB783
:102B9C003CB644B73CB744D744D744B744D744D7E2
:102BAC0044B744B744D744B73CD744B644B644B60C
:102BBC0044B644B644B644B644B644B644B644B639
:102BCC0044B644B744B644B644B644B644B644B628
:102BDC0044B644B644D644B644B644B644B644B6F9
:102BEC0044B644B63CB644B644D644D644B644B6D1
:102BFC0044D644B644B64CD644B644B64CB644B6A9
:102C0C0044B644B644D644D644B644B644D644B688
:102C1C004CB644B644B644B644B644B644B644B6D0
:102C2C0044B644B64CB64CB64CB64CB64CB64CB698
:102C3C004CB64CB64CB64CB64CB65CB664B65CB541
:102C4C001CB81CD81CB81CD81CD81CD81CB81CB858
:102C5C001CB81CB81CB81CD81CD81CD81CD81CD828
:102C6C001CD81CD81CD81CB71CB71CD724B81CB833
:102C7C001CB81CB81CB71CB81CB71CB81CB81CB8AA
:102C8C002CB83CB74CD754D844D82CB71CB71CB76D
:102C9C001CB724B724B724B724B724B724B724B758
:102CAC002CB72CB72CB72CB72CB72CB72CB72CB700
:102CBC002CB72CD72CB72CD72CD82CD82CD82CD82C
:102CCC0024D824D824B724D72CD72CD734D734D70E
:102CDC003CD834D82CB72CB724D724D724D724B736
:102CEC0024D724D724B724B724B724B72CB74CF750
:102CFC0055382CD72CD724D724D724D72CB734B776
:102D0C0034D734D72CD72CD82CD72CB634D73CD797
:102D1C003CB72CB72CB72CB82CB72CD72CD72CB73E
:102D2C0034D73CD74CD754F844B734B734B72CB756
:102D3C0034B72CB72CB72CB72CB72CB72CB734D73F
:102D4C0044D75D1765384CF734B734B734D734D71C
:102D5C0034D734D734D73CD73CD73CF744F74CF76F
:102D6C004CF74CF74CF74CF744F744F744F744F75F
:102D7C0044F744F744F74D174D174CF744F744F715
:102D8C0044F744D744D73CD73CD73CD73CD73CD767
:102D9C003CD73CD734D734D734D734D734D734D7BF
:102DAC0034D734D73CD73CB73CB73CB73CB73CD70F
:102DBC003CD73CD73CD734D734B73CD734B634B6F1
:102DCC003CB73CB73CD73CD73CB73CD73CB73CB7FF
:102DDC003CB73CB73CB744D73CB73CD644B644B6FA
:102DEC0044D744D744D73CB73CB73CB73CB73CD7A7
:102DFC003CB73CB73CB63CB73CD73CB73CB73CB710
:102E0C003CB73CB73CB73CB73CB73CD73CB73CB7FE
:102E1C003CB744D744B744D744D744D744B744B756
:102E2C0044B74CB74CD744B744B744B644B644B691
:102E3C0044B644B644B644B644B744B644B644B7B4
:102E4C0044B644B644B644B644B644B644B644B6A6
:102E5C0044B644B644D744B644B644D644D644B635
:102E6C0044B644B644B644B644D644B644B644B666
:102E7C0044B644B644B64CB644B644B64CB644B666
:102E8C0044B644B644B644B644B644B644B644B666
:102E9C004CB64CB644B64CB644B644B644B644B63E
:102EAC0044B64CB64CB64CB64CB64CB64CB64CB60E
:102EBC004CB64CB64CB64CB64CB654B65C9654B6F6
:102ECC001CB81CD81CD81CD81CD81CD81CD81CB896
:102EDC001CB81CD81CD81CD81CD71CB81CB81CB8C7
:102EEC001CD81CD81CD71CB724D724D724D824B85A
:102EFC0024B824D81CB71CD71CB71CB81CB824B8D1
:102F0C003CD844D74CD84CD834D724D71CD824B769
:102F1C001CB71CD724D724D824B724B724B724B77C
:102F2C0024D82CD82CD72CB72CD72CB72CD72CD8C2
:102F3C002CD82CD82CD82CD82CD82CD82CD82CD865
:102F4C0024D824D82CD72CD72CD734D73CD83CD841
:102F5C0034D72CB724B724D724D724D724D724D7B5
:102F6C0024D724D724B724D724B724B72CB74D188B
:102F7C004D182CD72CD82CD72CD72CB734D83CB7F1
:102F8C0034B72CB72CB724B724D724B724D72CB8F4
:102F9C002CB824D82CB72CD82CD72CD734D734B762
:102FAC0044D754F754F74CD73CB734B734B734D86C
:102FBC002CD72CB72CB72CB72CB72CD734D73CD755
:102FCC004CF75D185D1844D734B734B734D734D7C1
:102FDC0034D734D734D73CD73CF73CF744F744F7D5
:102FEC004CF74CF74D174CF74CF744F744F744F7B4
:102FFC0044F744D74CF74D184CF74CF744F744F7CB
:10300C0044D744D744D73CD73CD73CD73CD73CD704
:10301C003CD73CD73CD734D734D734D734D73CD72C
:10302C003CD73CD73CD73CD73CD73CD73CD73CD7FC
:10303C003CD73CD73CD73CD73CD73CD73CB73CB72C
:10304C003CB73CB73CB73CB73CB73CD73CB73CB7BC
:10305C0044B744B644B644D744D744D644D644D7F0
:10306C0044D744D744D73CB73CB73CB73CB744D71C
:10307C003CB63CD73CB73CB73CB73CB73CB73CB68E
:10308C003CB73CB63CD73CD73CB73CB73CB744D735
:10309C0044D744D744B744B744D744D74CB74CB7BC
:1030AC0044B744B644B644B644B644D744B644B622
:1030BC0044D744D744B644D744D744B644B644B7AF
:1030CC0044B644B644B644B744B744B644B644B721
:1030DC0044B644D644D744B644B644B644B644B6D3
:1030EC0044B644B644B644D644D644B644B644D6A4
:1030FC0044B644B644B644B644B64CB64CB64CB6DC
:10310C004CB644B644B644B644D644D644B644B69B
:10311C004CB64CB64CB64CD64CB64CB64CB644B67B
:10312C0044B64CB64CB64CB64CB64CB64CB64CB68B
:10313C004CB64CB64CB64CB64CD64CB64CB64CD633
:10314C001CD81CB81CB81CD81CD81CD81CD81CD813
:10315C001CD81CD81CD81CD81CB71CB824B824D814
:10316C001CD81CD81CD81CD81CD81CD824D81CD7AC
:10317C001CD824D824D81CB71CB724B724B72CD7F8
:10318C0044D84CF854F844D824D71CD724D82CB79E
:10319C0024B724B724D824D824D724D724D724D789
:1031AC0024D724D72CD72CD72CD82CD82CD82CD807
:1031BC002CD82CD82CD82CD82CD82CD82CD824D8EB
:1031CC0024D82CD82CD72CB734D73CF83CF834F86E
:1031DC0034D724B71CD71CF724D724D72CD72CD7FB
:1031EC0024D724D724D724D724D72CD72CB744D7EB
:1031FC003CD724D72CB82CD72CB734D734D83CB7E1
:10320C0034D72CB72CB724B724D82CD82CD82CD8FE
:10321C002CD724D72CB72CB72CB734D73CD74CD7BA
:10322C0054F7551844D63CB734B734B734D72CD7E9
:10323C002CD72CD72CB72CB72CB72CD734D744D7AA
:10324C0054F75D1854F73CD734D72CB734B734D770
:10325C0034D734D734D73CF73CF73CF744F744F732
:10326C004CF74D174D174D174CF744F744F744F7EF
:10327C0044F744D74CF74CF74CF74CF744D744D7AA
:10328C0044F744F73CD73CD73CD73CD73CD73CD74A
:10329C003CD73CD73CD73CD734D734D734D73CD7A2
:1032AC003CD73CD73CD73CD73CD73CD73CD73CD77A
:1032BC003CD73CD73CD73CD73CD73CD73CB73CD78A
:1032CC003CD73CB73CB73CB73CB73CD73CD73CB7FA
:1032DC003CD73CD644B644D644D744D644D744D73E
:1032EC0044D744B744B744B73CD73CD744B744B7AA
:1032FC003CB644D73CB63CB73CB73CB73CB73CB605
:10330C003CB63CB63CD73CB63CB63CD744D744D68E
:10331C0044B644D644D744D74CD74CD744D644B6FD
:10332C0044B744D644D644B644D644D744B644D71E
:10333C0044D744B744B74CD744B744B644B644B664
:10334C0044B644B744B644B644B644B644B744D77E
:10335C0044D744D644D744D744B644B644B644B60E
:10336C0044B644B644D744D644D644D644D64CD6B8
:10337C0044D64CD64CB64CB644B64CB64CB64CD6E1
:10338C004CD64CD64CD64CD644D64CB64CB64CB689
:10339C004CD64CB64CB64CD64CB64CB64CB64CB6D1
:1033AC004CB64CB64CB64CB64CD64CD64CD64CB6A1
:1033BC004CD64CB64CB64CB64CD654B64CD64CD669
:1033CC001CD81CD81CD824D81CD81CD81CD81CD849
:1033DC0024D81CD81CD81CB81CD824D824D824D841
:1033EC001CD81CD81CD81CB81CD81CD81CD81CD851
:1033FC001CD824D824D81CB71CD724D724D734D70E
:10340C004CD74CF844F834D824D71CD72CD72CB72D
:10341C002CB724D724D724D824D724D724D724D8DE
:10342C0024D824D724D72CD72CD82CD82CD82CD88B
:10343C002CD82CD82CD82CD72CD82CD82CD824D76A
:10344C0024D72CD72CD734D73CF83CF834F82CD7CD
:10345C002CD824D71CD724D72CD82CD72CD72CD766
:10346C0024D724D724D724D724D72CD72CD734B778
:10347C002CD72CD72CB72CD834D734D734D834D726
:10348C002CD72CD72CD724D724D72CB834D734D737
:10349C002CD72CD734D834D73CB74CD754D75D184D
:1034AC005D3844F734B72CB72CB734D734D734D86D
:1034BC002CD72CD72CD72CD72CB734D73CD74CD7D0
:1034CC005517551844D734D734D72CD734D734D7CD
:1034DC0034D734D734D734D73CD73CD744F744F718
:1034EC004CF74D1755174D174CF744F744F744F765
:1034FC0044F744F744F74CF74CF74CF744F744F7D0
:10350C0044F744F73CF73CD73CD73CD73CD73CD7A7
:10351C003CD73CD73CD73CD73CD73CD73CD73CD707
:10352C003CD73CD73CD73CD73CD73CD73CD73CD7F7
:10353C003CD73CD73CD73CD73CD73CB73CD73CD707
:10354C003CD73CD73CD73CD73CD73CD73CD73CD7D7
:10355C003CD73CD73CD644D744D744D744D744D7A0
:10356C0044D744B744B744D744D744D744B744B7F7
:10357C0044B744D73CD73CD744D73CB73CD73CD7CF
:10358C003CD73CB644D73CD744B744B744D744D6D1
:10359C0044B644D64CD74CD74CD64CD644D644D64D
:1035AC0044D744D644D644D644D644D64CD64CD72D
:1035BC004CD74CD64CD64CD644D644D644D64CD606
:1035CC0044D64CD644D644D644B644B64CD644D64F
:1035DC0044D644D644D644D644D644B644D644B64F
:1035EC0044B644D64CD744D64CD74CD64CD64CD6F5
:1035FC004CD64CD64CD64CD644B64CB64CD64CD6F7
:10360C004CD64CB64CD64CD64CD64CB64CD64CD6DE
:10361C004CD64CB64CB64CB64CD64CB64CB64CB64E
:10362C004CB64CD64CB64CB64CB64CB64CB64CD63E
:10363C004CD64CD64CD64CD54CB554B64CD64CD6A8
:10364C001CD81CD824D824D81CD81CD71CD81CD8BF
:10365C0024D824B81CD814D814D71CD824D824D8CF
:10366C001CD81CD81CD81CD81CD81CD81CD81CD8AE
:10367C001CD824D824D81CB71CB724D724D834D7AA
:10368C004CD84CD83CD82CB724D724D72CD72CD7F3
:10369C002CD724D724D72CD824D72CD72CD72CD71D
:1036AC002CD72CD72CD72CD82CD724D72CB82CD81B
:1036BC002CD82CD72CD72CD82CD82CD82CD82CD7E1
:1036CC0024D72CD72CD73CF83CF834D72CD72CD774
:1036DC002CF824F724D724D72CD82CD82CD82CD79A
:1036EC002CD724D724D724D724D72CD72CD82CB7F5
:1036FC002CD72CD82CD72CD83CF83CF834D72CD73A
:10370C002CD72CD72CD82CD72CD724D72CD72CD79C
:10371C002CB72CB734B734D74CD75CF76D3765382A
:10372C004CF834B72CD72CD734D734D734B734D84B
:10373C002CD72CD72CD82CD734D734D744D754D714
:10374C0054F74CF83CD734D734D72CD734D734D79C
:10375C0034D734D734D73CD73CD744D744F7451764
:10376C004CF7551755174D174CF744F744F73CD702
:10377C003CF744F744F744F744F744F744F744F76D
:10378C0044F744F73CD73CF73CD73CD73CD73CD725
:10379C003CD73CD73CD73CD73CD73CD73CD73CD785
:1037AC003CD73CD73CD73CD73CD73CD73CD73CD775
:1037BC003CD73CD73CD73CD744D744D73CD73CD755
:1037CC003CD73CD73CD73CD744D744B744D744D755
:1037DC0044D73CD744D744D744D744D744D744D70D
:1037EC0044D744D744D744D744D744D744D744D7F5
:1037FC0044D744D73CD73CD744D73CB73CD73CD72D
:10380C003CD63CD644D744D744D744D744D744D6E7
:10381C0044D644D644B64CD74CD64CD64CD64CD6C3
:10382C004CD74CD74CD74CD74CD64CD644D64CD680
:10383C004CD74CD64CD64CD74CD74CD64CD74CD668
:10384C004CD644D64CD64CD74CD644D64CD644D772
:10385C0044D644D644D644D644D644D644D644D68C
:10386C0044D644D74CD74CD74CD74CD64CB64CD668
:10387C004CD74CD64CB64CD644B64CD64CD64CD673
:10388C004CD64CB64CB64CD64CD64CB64CD64CD67C
:10389C004CD64CD64CD644B64CB64CD64CD64CD654
:1038AC004CD64CD64CB64CB64CB64CD64CD64CD65C
:1038BC004CB64CD64CB64CB654B64CB64CB64CD6A4
:1038CC0024D824D824D81CD81CD81CD81CD81CD834
:1038DC0024D824D81CD81CD71CD824D824D824D716
:1038EC001CD71CD71CD81CD824D824D824D824D80E
:1038FC0024D824B824D824B824D824D824D734D80D
:10390C0044F844D82CB724B724D824D82CD72CD797
:10391C002CD72CD72CD72CD72CD82CD82CB72CD7A1
:10392C002CB72CD82CD82CD72CD82CD82CB72CD8AE
:10393C002CD82CD72CD72CD82CD82CD72CD82CD85E
:10394C0024D82CD834F8351834F834D72CD72CD7B5
:10395C0024D824D72CF82CD82CD82CD72CD72CD72F
:10396C002CD724D72CD724D724D72CD72CD72CD84A
:10397C002CD72CD734D734F83CF834D72CD72CD8B8
:10398C002CD72CD72CD72CB72CD724D724D72CD743
:10399C002CD734B73CB844F75D177538755854F7C5
:1039AC003CD72CD72CD72CD834D734D734D734D7C2
:1039BC002CD72CD72CD734D734D73CD74CD75CF852
:1039CC0054F744D734D834D734D734D734D734D742
:1039DC0034D734D734D73CF73CD73CD744F74D17C2
:1039EC004D175517551755174D1744F744F744D72E
:1039FC0044F744F744F7451744F744F744F744F7C2
:103A0C003CF73CF73CF73CD744D73CD744F744D77A
:103A1C003CF734F73CD73CD73CD73CD73CD73CD7CA
:103A2C003CD73CD73CD73CD73CD73CD73CD73CD7F2
:103A3C003CD73CD73CD73CD73CD744D744D744D7CA
:103A4C0044D73CD73CD744F744D744D744D744D782
:103A5C0044D744D744D744D744D744D744D744D782
:103A6C0044D744D744D744D744D744D744D744D772
:103A7C0044D744D744D744D744D73CD73CD63CD67C
:103A8C003CD644D644D744D744D744D744D744D75C
:103A9C0044D74CD74CD74CD74CD64CD74CD74CD70B
:103AAC004CD74CD74CD74CD74CD64CD74CD74CD6F4
:103ABC004CD744D644D64CD74CD74CD74CD74CD7F4
:103ACC004CD64CD64CD64CD64CD64CD64CD74CD6D9
:103ADC004CD64CD64CD644D644D644D644D644D6F2
:103AEC0044D644D64CD74CD64CD64CD64CB64CD6E9
:103AFC004CD64CD64CD64CD64CD64CD64CD74CD6A9
:103B0C004CD64CD64CD64CD64CD64CD64CD64CD699
:103B1C004CD64CD64CD64CD64CD74CD64CD64CD688
:103B2C004CD64CD64CD64CD64CD64CD64CD64CD679
:103B3C004CD64CD64CD64CD64CB64CB64CD64CD6A9
:103B4C001CB724D71CD81CD824D824D81CD824D8CB
:103B5C0024D824D71CD81CD824D824D824D824D78B
:103B6C0024D81CD724D81CD824D824D824D824D87A
:103B7C0024B824B824B824D824D824D824D72CD8B2
:103B8C0034F834B82CB724D82CD82CD82CD72CD823
:103B9C002CD82CD82CD834D82CD82CD82CD72CD8F2
:103BAC002CD82CD82CD82CD82CD82CD82CD72CD8EA
:103BBC002CD82CD72CD72CD72CD72CD72CD824D7E7
:103BCC0024D82CD834F834F82CD82CD82CD82CD881
:103BDC0024D82CD82CF82CD82CD82CD72CD72CD8A3
:103BEC002CD82CD72CD724D724D72CD72CD72CD8BF
:103BFC002CD734D73CF83CF834D834D72CD72CD825
:103C0C002CD82CD82CD734D82CD824D724D72CD893
:103C1C002CD73CD74CF765177D58755854F73CB7E3
:103C2C0034D72CF82CD734D734D734D73CD734D717
:103C3C0034D734D734F734D83CD744F755175D18FC
:103C4C004CF73CD734F734F734F734D83CD73CD75F
:103C5C0034D734D73CF73CF73CF744F744F74D17CF
:103C6C00551755174D174D174D174CF84CD844F8A0
:103C7C0044F844D744F7451744F844F844D744D79C
:103C8C0044D744D744D744D744D73CF734D744F728
:103C9C003CD73CF73CD73CD73CD73CD73CD73CD760
:103CAC003CD744D73CD73CD73CD73CD73CD73CD768
:103CBC003CD73CD73CD73CD73CD744D744D744D748
:103CCC0044D744D744D744F744D744D744D744D7F0
:103CDC0044D744D744D744D744D744D744D744D700
:103CEC0044D744D744D744D744D744D744D744D7F0
:103CFC0044D744D744D744D744D744D744D744D7E0
:103D0C0044D744D744D744D744D744D74CD744B7E7
:103D1C0044B74CD74CD74CD74CD74CD74CD74CD7A7
:103D2C004CD74CD74CD74CD74CD64CD74CD74CD770
:103D3C004CD744D744D74CD74CD74CD74CD74CD76F
:103D4C004CD74CD74CD64CD644B64CD64CD64CD67D
:103D5C004CD64CD74CD74CD74CD64CD64CD74CD742
:103D6C004CD74CD74CD64CD64CD64CD64CD64CD635
:103D7C004CD64CD64CD64CD64CD64CD64CD74CD725
:103D8C004CD64CD64CD64CD64CD64CD64CD64CD617
:103D9C004CD64CD64CD64CD64CD74CD64CD64CD606
:103DAC004CD64CD64CD64CD64CD64CB64CD64CD617
:103DBC004CD654D654D654D654D64CD64CD64CD6C7
:103DCC001C561C9724D724D824D824D824F824D8BB
:103DDC0024D724D724D824D824D824D824D824D8F9
:103DEC0024F824D724D824D824B824D824B824B828
:103DFC0024B82CB824D824B824D824D82CD82CD81F
:103E0C002CD82CB724B72CD82CD824B72CD72CD8FA
:103E1C002CD82CD82CD834D82CD82CD82CD82CD86E
:103E2C002CD82CD82CD82CD82CD82CD82CD82CD866
:103E3C002CD72CD72CD82CD82CD72CF82CD824D742
:103E4C0024D82CD72CD82CD72CD82CD82CD82CD850
:103E5C002CD82CD82CD82CD82CD82CD82CD82CD836
:103E6C002CD82CD82CD824D724D724D72CD834D839
:103E7C0034D73CD73CF834D834D82CD72CD82CD8C1
:103E8C002CD82CD82CD834D82CD82CD72CD82CD8FF
:103E9C0034D754F76D3785787D5854F73CD72CD7E9
:103EAC002CD734D834D834D734D834D734D734D7B3
:103EBC0034F734D734D73CD744D74CF755184CF794
:103ECC0044D73CD734D734D73CF83CD83CD73CF714
:103EDC003CF73CF73CF73CF73CF744F744F84D17FC
:103EEC00551755174D174D174CF74CF84CF73D1807
:103EFC003CF844F844F744F744F74CF74D17551782
:103F0C00551755174CF74CF744D73CF83CF73CD7B2
:103F1C003CD73CD73CF73CF73CD73CD73CD73CD7BD
:103F2C003CD744D73CD73CD73CD73CD744D744D7D5
:103F3C0044D744D73CD73CD73CD744D744D744D7B5
:103F4C0044D744D744D744F744D744D744D744D76D
:103F5C0044D744D744D744D744D744D744D744D77D
:103F6C0044D744D744D744D744F744D744D744D74D
:103F7C004CD744D744D744D744D744D744D744D755
:103F8C0044D744D744D744D744D744D74CD74CD73D
:103F9C004CD74CD74CF74CD74CD74CD74CD74CD7DD
:103FAC004CD74CD74CD74CD74CD64CD74CD74CF7CE
:103FBC004CD74CD744D74CD74CD74CD74CD74CD7E5
:103FCC004CD74CD74CD74CD74CD64CD74CD74CD7CE
:103FDC004CD74CD74CD74CD74CD74CD74CD74CD7BD
:103FEC004CD74CD74CD74CD74CD74CD64CD74CD7AE
:103FFC004CD74CD74CD74CD64CD64CD74CD74CD79F
:10400C004CD64CD64CD64CF64CD64CD64CD64CD674
:10401C004CD64CD64CD64CD64CD64CD64CD64CD684
:10402C004CD64CD654D654D654D64CD64CD74CD65B
:10403C004CD654D654D654D654D654D654D654D62C
:10404C0014141C551C9624B724D82CD824F824D826
:10405C0024D724D724D824D82CD82CD824D824D866
:10406C0024D824B724D824D824D824D824D824B7A6
:10407C0024B82CD824D824B724D824D724D82CD886
:10408C0024D824D824D82CD82CD824D82CD72CD825
:10409C002CD82CD834D834D82CD82CD82CD82CD8E4
:1040AC002CD82CD834F82CD834F82CD82CD82CD894
:1040BC002CD82CD72CD82CD82CD82CD82CD724D7DF
:1040CC002CD72CD72CD82CD72CF82CD82CF82CF867
:1040DC002CF82CD82CF82CD82CD82CD82CD82CD874
:1040EC002CD82CD724D724F824D824D72CF834D87F
:1040FC003CD83CF834D734D72CD82CD82CD834D83E
:10410C0034D834D834D834D82CD82CD82CD72CD864
:10411C003CD76D3785997D785CF73CD734D82CD853
:10412C002CD834D734D834D734D834D734D734F80F
:10413C0034F734D73CD744D74CF74CF74D1844F7E9
:10414C003CD734D73CD73CD73CD73CD734D73CF7BB
:10415C003CF73CF73CF73CF73CF744F845184D1757
:10416C004D174D174D174D174CF74CF844F744D7D6
:10417C0044D744F74CF754F76D5885B99E3BA65B72
:10418C00AE5BA65B9E3B961A8DFA6D785D3744D676
:10419C003CF73CF73CD73CF83CF73CD73CD73CD7FA
:1041AC003CD744D73CD73CD73CD744F744D744F70B
:1041BC0044D744D73CD73CD744D744D744D744D72B
:1041CC0044F744D744D744D744D744D744D744D7EB
:1041DC0044D744D744D744D744D744D744D744D7FB
:1041EC0044D744D744D744D744F744D744D744D7CB
:1041FC004CD744D744D744D744D744D744D744D7D3
:10420C0044D744D744D744F744D74CD74CD74CF772
:10421C004CF74CF74CF74CF74CD74CD74CD74CD7FA
:10422C004CD74CD74CD74CD74CD64CD74CD74CD76B
:10423C004CD74CD74CD74CD74CD74CD74CD74CD75A
:10424C004CD74CD74CD74CD74CD74CD74CD74CD64B
:10425C004CD74CD74CD74CD74CD74CD74CD74CD73A
:10426C004CD74CD74CD74CD74CD74CD64CD74CD72B
:10427C004CD74CD74CD74CD64CD64CD64CF64CD6FF
:10428C004CD64CD64CF64CD64CD64CD64CD654D6EA
:10429C0054D654D654D754D654D654D64CD64CD6D1
:1042AC004CD64CD654D64CD64CD64CD64CD64CD6EA
:1042BC004CD654D754D654D654F654D654D654D689
:1042CC0013D31C141C55249624B72CD824D824D8CA
:1042DC0024B724B724B724D82CD82CB824D824D865
:1042EC0024D824B724D824D824D82CD82CD82CB70C
:1042FC002CB72CB824D724B724D724D824D824D826
:10430C0024D824D824D82CD82CD824D82CD72CD8A2
:10431C002CD834D834D834D82CD82CD82CD82CD859
:10432C002CD82CD834D82CD834F834F82CD82CD809
:10433C002CD82CD82CD82CD82CD82CD82CD72CD753
:10434C002CD82CD72CD82CD82CD82CD82CF82CF802
:10435C0034F82CF82CF82CF82CF82CD82CD82CD889
:10436C002CD82CD824F72CF82CD82CD834F83CF892
:10437C003CF834F82CD72CD72CD72CD72CD834D8B5
:10438C0034D834D834D834D834D82CD82CD734D7D3
:10439C0044D775587D79551734D734D834B834D8B8
:1043AC0034D734D734D734D734D834F73CD734F85F
:1043BC0034F73CD73CD74CF74CF84D184D183CD73C
:1043CC0034D734D73CD73CD73CF73CF73CF73CF8D8
:1043DC003CF73CF73CF73CF73CF744F745184D18D5
:1043EC004D174D174D174D174D1744F744F844F81A
:1043FC004CF75D187DBAA67BC6DDD6DCCE7BC5F945
:10440C00BD56B556B557BDD8C65AC6BCAE9C85D997
:10441C00551744D644D73CD73CF73CF73CD73CD750
:10442C003CF744D744F744F744F744F744F744F7D0
:10443C0044D744D744F744F744F744F744F744F7D8
:10444C0044F744F744D744D744D744D744F744F708
:10445C0044D744D744D74CD74CD74CF744D74CF718
:10446C0044D744D744D744D744D744D744D744D768
:10447C0044D744D74CF74CF744F744D744D644F7C9
:10448C0044D744D744D74CF744D74CD74CD74CD708
:10449C004CD74CF74CF74CF74CF74CD74CD74CF758
:1044AC004CF74CD74CD74CD74CD64CF74CD74CD6AA
:1044BC004CD74CD74CD74CD74CD74CD74CD754F7B0
:1044CC004CF74CF74CD74CD74CD754D74CD74CD681
:1044DC004CD64CF74CF64CF74CF64CF74CF74CD7FB
:1044EC004CF74CF74CD64CD64CD64CD64CD64CD66E
:1044FC004CD64CF74CD74CD64CD64CD64CF64CF63E
:10450C004CD64CD64CD64CD64CD64CD64CD654D786
:10451C0054D754D754D754D654D654D654D654D63C
:10452C004CD654D654D654D64CD654D64CD654D647
:10453C0054D654D654D654D654F654F654D654D6DF
:10454C00139113B213F31C351C7624B724D824D83A
:10455C0024D82CD824B82CD82CD82CD82CD82CD85F
:10456C002CD824B724D82CD82CD82CD82CD82CB771
:10457C002CD82CB824D824D724D724D824D824D861
:10458C0024D824F824D82CD82CD824D82CD834F8D7
:10459C002CD82CD82CD82CD82CD82CD82CD82CD8EF
:1045AC002CD82CD82CD834D834F834F834D82CD87F
:1045BC002CF82CF82CF82CF834F834F834F82CF8B7
:1045CC002CF82CD82CD82CD82CF82CD82CF82CF83F
:1045DC002CF834D834D834F82CF82CF834F834D8E7
:1045EC002CD82CF82CD72CD834F834F83CD83CF8F0
:1045FC003CD834D82CD82CD82CD82CD834D834D867
:10460C0034D834D834D834D834D82CD82CD834D84E
:10461C003CF8551854F73CD62CF734D83CD844F811
:10462C0044F844F83CD734D734F734F83CF834D752
:10463C0034F83CF844F74D1855184CF844F734D777
:10464C0034F734F73CF73CF73CF83CF73CF73CF8D4
:10465C003CF73CF73CF73CF73CF744F844F844F79C
:10466C004D174D1745174517451744F74CF7551778
:10467C007DD9BEFDD73DD6BBC5F8B515A45293D098
:10468C00938F93AF93AF9C10A472B556CE5ACEFDB8
:10469C00BEBC85B854F744F73CF73CF73CD73CF725
:1046AC003CF744D744F744F744F744F744F744F74E
:1046BC0044D744D744F744F744F744F744F744F756
:1046CC0044F744F744F744D744D744D744F744F766
:1046DC0044D744D74CD74CD74CD74CF84CF74CF765
:1046EC0044D744F744F744F744F744F744D744D746
:1046FC004CD744D744F74CF744F744F744F74CD71E
:10470C004CD74CF74CF74CF744D74CD74CD74CD72D
:10471C004CD74CF74CF74CF74CF74CD74CD74CD7F5
:10472C004CD74CD74CD74CF74CD74CD74CD74CD745
:10473C004CF74CF74CF74CD74CD74CD74CD754F7CD
:10474C004CF74CF74CF74CD74CF754F754F74CF755
:10475C004CF74CF74CF74CD64CD64CD64CF74CF798
:10476C004CF74CF74CD64CD64CD64CD64CF74CF7A9
:10477C004CD64CF74CF74CF74CF74CD64CD74CD698
:10478C004CD64CD64CD64CD64CD64CF74CD64CD6EC
:10479C0054F754F74CD64CD74CD654D654D654D692
:1047AC0054D654D654D654D654D654F754F754D66B
:1047BC0054D654D654D64CD654D654D654D654F685
:1047CC001330137113B213F314351C7624B724D899
:1047DC0024D82CD82CD82CD82CD82CD82CD82CD8B5
:1047EC002CD824B72CD72CD72CD72CD82CD82CB8E9
:1047FC002CD82CD824D824D824D824D824D824D8BD
:10480C0024D824D824D824D82CD824D82CD834D89C
:10481C0034F834F82CD834D82CD82CD82CF82CD8F4
:10482C002CD834D834D834F834F834D82CD82CD8F4
:10483C002CF834F82CF82CD82CF834F834F834F84C
:10484C0034F82CF82CD82CF82CF834F82CF82CF84C
:10485C0034F834F834F834F82CF834F834F834F8F4
:10486C002CD82CF82CD834F834F83CF83CF844F814
:10487C003CD834D82CF82CF834F834D834D834D874
:10488C0034D834F834D834D834D82CD834D834D8A4
:10489C0034D83CD734D734D734D734D734F744F85A
:1048AC004CF84D1844F83CF734F73CF83CF834D746
:1048BC0034F83CF84CF85518551844F73CF734F8D4
:1048CC0034F834F83CF73CF73CF73CF73CF73CF752
:1048DC003CF73CF73CF73CF73CF744F7451844F7FA
:1048EC004517451745173CF744F754F77D77B69BAA
:1048FC00DF3DDEDBC5D7ACD3A4329BD1934F8B0D00
:10490C0092ED92ED930D9B2E9B8F9BD1AC93BD970B
:10491C00D69BCF1D9E5B5D5844F73CF73CF73CD7CC
:10492C003CF73CD744F744F744D744F744F844F7F2
:10493C0044F744F744D744F744F744F744F744F7B3
:10494C0044F744F744F744F744F744F744F744F783
:10495C0044D74CF74CF74CF74CD74CF74CF74CF77B
:10496C0044F744F744F744F744F744F744D744D7A3
:10497C0044F744F744F744F744F744F744F74CD76B
:10498C004CD74CF74CF74CF74CF74CF74CF74CF723
:10499C004CD74CF74CF74CF74CF74CD74CD74CD773
:1049AC004CD74CD754D74CF74CF74CD74CF74CF75B
:1049BC004CD74CF74CF74CD74CD754F754F754F71B
:1049CC004CD74CF74CF74CD74CF74CD74CF754F71B
:1049DC0054F754F754F754F74CF754F754F74CF783
:1049EC004CF74CF74CF74CF74CD64CD64CD64CD627
:1049FC004CD64CF64CF74CF754F754F754D754F7B5
:104A0C004CD654D654F654F754F754F74CF64CD6BF
:104A1C004CD64CF74CF64CF64CD654F754D654D6E0
:104A2C0054F654F654D654D654D654F654D654D6CA
:104A3C0054D654D654D654D654D654F654D654D6FA
:104A4C0012EE132F137013B213F31C34247624B705
:104A5C002CD72CD82CD82CD82CD82CD82CD82CD82B
:104A6C002CD82CD82CD82CD82CD82CD82CD82CB83A
:104A7C002CB824D824D82CD82CD824D824F824F812
:104A8C0024F824F824F82CD72CF82CF82CF834F82B
:104A9C0034D834F834D834D834F834F82CD82CD85A
:104AAC0034D834D834F83D1834F82CD82CD834F801
:104ABC0034F834F82CF82CF82CF82CF834F834F8AA
:104ACC002CF82CF82CF82CF834F834F834F834F89A
:104ADC0034F834F834F834F82CD834F834F82CD8BA
:104AEC0034F834F82CF834F83CF83CF83CF83CD862
:104AFC0034D834F834F834F834D834D834F834F8AA
:104B0C0034F834F834F834F834F834F834F834F839
:104B1C0034F834D834F834D83CD83CD83CD844F8A1
:104B2C0044F84CF84CF84CF844F73CF83CF83CF79B
:104B3C003CF744F84CF855184CF744F734F734F874
:104B4C0034F834F83CF83CD73CF73CF73CF73CF7EE
:104B5C003CF73CF73CF73CF73CF744F7451744F778
:104B6C00451745173CF744D755178E3BD73DE75DA6
:104B7C00CE38B535AC929BF09B6F934E8B2E8B0D34
:104B8C008ACC92CC8ACC9B0D9B4E9B4F9B90AC734A
:104B9C00BD37CE3ACEFCB69C757844D73CF744D79B
:104BAC0044F844F744F744F744F744F744F744F720
:104BBC0044F744F744F744F744F744F744F744F711
:104BCC0044F744F744F744F744F744F744F744F701
:104BDC0044F74CF744F74CF74CD74CD74CF744F709
:104BEC0044F744F744F74CF74CF744F744F744F7D1
:104BFC004CD74CF74CF74CF744F744F74CF74CF7C1
:104C0C004CF74CF74CF74CF74CD74CF74CF74CF7A0
:104C1C004CF74CF74CF74CD74CD74CD74CD74CD710
:104C2C004CD74CD754D74CD74CF74CF754F754F7C8
:104C3C004CF74CF754F754F74CF754F754F754F728
:104C4C004CF754F754F74CF74CF74CF754F754F720
:104C5C0054F74CF754F754F74CF754F754F74CF708
:104C6C004CF754F754F754F74CD74CD654D654D67B
:104C7C0054D654F64CF654F654F754F754F754F7FC
:104C8C0054F654D654F654F754D654D64CD64CD677
:104C9C004CD654F654D654F64CF654F754F754F606
:104CAC0054F654F654D654F654F654D654D654F608
:104CBC0054F654D654F654F654F654F654F654F6B8
:104CCC0012AC1AED1B2F1B501B921BD31C152476F8
:104CDC0024972CD82CD72CD82CD82CD82CD82CD8F2
:104CEC0024D82CD82CD82CD82CD82CD82CD82CD8A0
:104CFC002CD824D82CD82CD82CD82CD824D824F880
:104D0C0024F824D82CD82CD82CF82CF82CF834F8DF
:104D1C0034F834F834F834F834F834F834F834F827
:104D2C0034D834F83CF834F834F82CF834F834F837
:104D3C0034F834F834F834F834F834F834F834F807
:104D4C0034F82CF82CF82CF834F834F834F834F80F
:104D5C0034F834F834F82CF82CF834F834F834F8F7
:104D6C0034F82CF82CF834F83D183CF83CF834D8CE
:104D7C0034F834F834F834F834F834F834F834F8C7
:104D8C0034F834F834F834F834F834F834F82CD8DF
:104D9C0034F834F834F834D834D834D83CD83CD738
:104DAC003CD744D84CF84CF84CF844F844F844F749
:104DBC0044F744F854F8551844F73CF734F73CF8EA
:104DCC0034F834F83CF83CF73CF73CF73CF73CF74C
:104DDC003CF73CF73CF73CF73CF73CF7451744F7FE
:104DEC004CF845174D176538A69BDF7EDEFDBD766A
:104DFC00A43193D09BF19B6F9B2E8B0D8B2D8AEC4A
:104E0C0092ED8ACC8ACC8AEC930D92EC9B4EA3B09B
:104E1C00AC12BCF5C5D8CE9BBE9B7D9944F744F82B
:104E2C0044F744F744F744F744F744F844F744F79D
:104E3C0044F744F744F744F744F744F744F744F78E
:104E4C0044F744F744F744F744F74CF744F744F776
:104E5C004CF74CF74CF744F74CD74CF74CF744F75E
:104E6C0044F744F74CF74CF74CF74CD74CD74CF76E
:104E7C004CF74CF74CD74CF74CF74CF74CF74CF72E
:104E8C004CF74CF74CF74CF74CF74CF74CF74CF7FE
:104E9C004CF74CF74CF74CF74CF754F754F754F7D6
:104EAC0054F74CD754F754F74CF754F754F754F7CE
:104EBC0054F74CF74CD754F754F754F754F754F7BE
:104ECC0054F754F754F74CF74CF754F754F754F78E
:104EDC0054F74CF754F754F754F754F754F754F776
:104EEC0054F754F754F754F754F754D754F754F67F
:104EFC0054F654F754F654F654F654F754F754F752
:104F0C0054F754F654F654F654D654D654D654D6C4
:104F1C0054D65CD65CD65CD654D654D654F654F6DD
:104F2C0054F654F654D654F654F654D654F654F665
:104F3C0054D654D654F654F654F654F654D654F675
:104F4C00124A1AAB1AED1B0F1B501B911BB21BF311
:104F5C00245524962CB72CD72CD82CD824B82CD844
:104F6C0024D82CD82CD82CD82CD82CD82CD82CD81D
:104F7C002CF82CD82CF82CD82CD82CD82CD82CD8C5
:104F8C0024D82CD82CF82CF82CF834F834F834F825
:104F9C003CF8351834F834F8351834F834F834F85B
:104FAC003CF83D193CF834F834F834F834F834F85B
:104FBC0034F834F834F834F834F834F834F834F885
:104FCC0034F834F834F834F834F834F834F834F875
:104FDC0034F834F8351835182CF834F834F834F82B
:104FEC0034F82CF82CF834F8351834F834F834F844
:104FFC002CF834F834F834F834F834F834F834F84D
:10500C0034F834F834F834F834F834F834F834F834
:10501C0034F834F83CD834D834F834D83CD83CF88C
:10502C0034D83CD83CF844F84CF84CF84CF84CF8D4
:10503C004CF84CF854F84CF83CF734F734F73CF88F
:10504C003CF83CF83CF83CF73CF73CF73CF73CF7B9
:10505C003CF73CF73CF73CF73CF73CF744F745187A
:10506C0044F855176D57C6FDEF7DCDF79C31830E77
:10507C0082AC8AAC932D930D8B0D8B0C8B2D8AEC03
:10508C008ACC8AAC8AAC8AAB8A8B8AAC92EC9B0DAC
:10509C00A36EABF1C4F5CDB7CE19CEBC7D994CF750
:1050AC0044F744F744F744F744F744F7451744F7FB
:1050BC0044F744F744F744F744F744F744F744F70C
:1050CC0044F744F744F744F74CF74CF74CF74CF7DC
:1050DC004CF74CF74CF844F74CF74CF744F744F7C3
:1050EC004D174D174CF74CF74CF74CF74CF74CF75A
:1050FC004CF74CF74CF74CF74CF74CF74CF74CF78C
:10510C004CF74CF74CF74CF74CF74CF754F74CF773
:10511C004CF74CF74CF74CF754F754F754F754F74B
:10512C0054F754F75517551754F754F754F754F7D9
:10513C0054F754F74CF754F754F754F754F754F713
:10514C0054F754F74CF74CD74CF74CF754F754F73B
:10515C0054F754F754F754F754F754F754F754F7EB
:10516C0054F754F754F754F754F754F754F754F7DB
:10517C0054F754F654F654F754F754F754F654F6CF
:10518C0054F754F754F754F754F754F65CF65CF6AE
:10519C0064F66CF675166CF664F65CD654F654F63A
:1051AC0054F654F654F654F654F654F654F654F6A3
:1051BC0054F654F654F654F654F654F654F654F693
:1051CC0012081249128B12CC1B0E1B4F1B901BB2D8
:1051DC001BF324352C762CB72CD72CD824D82CD8D0
:1051EC0024D824F82CD82CD82CD82CD82CD82CD883
:1051FC002CF82CD82CF82CD82CD82CD82CD82CD843
:10520C002CF82CF834F82CF834F834F834F834F84A
:10521C003CF834F834F834F834F834F83CF83CF80A
:10522C003D183CF834D834F834F83CF834F834F8F9
:10523C0034F834F834F834F834F834F834F834F802
:10524C0034F834F834F834F834F834F834F834F8F2
:10525C0034F834F83518351834F834F834F835187F
:10526C0034F834F82CF834F8351834F834F82CF8C1
:10527C002CF834F834F834F834F834F834F834F8CA
:10528C0034F834F834F834F834F834F8351834F891
:10529C0034F834F83CD834F734F734F73CF83CF8AD
:1052AC0034F834F834F83CF844F74CF84CF84D1812
:1052BC004D18551855184D183CF734F73CF73CF879
:1052CC003CF83D183CF73CF73CF73CF73CF73CF717
:1052DC003CF73CF73CF73CF73D173CF8451844F7D6
:1052EC0045376D78BEFDDF1CBD558BAF830D828CB1
:1052FC00824B8A4A8AAA934D93AF93AF9BEF938EBE
:10530C008AEC8ACC8ACC8A8B8AAB8ACC8AAC9ACD32
:10531C009AEDA390C4D4D5D7CDB7C5D8C69B757814
:10532C0044F7451844F744F744F744F7451744F756
:10533C0044F744F744F744F744F744F744F744F789
:10534C0044F744F744F74CF74CF74CF74CF74CF751
:10535C004CF74CF74D1744F74CF74CF74CF74CF710
:10536C004CF74CF74CF74CF74CF74CF74CF74CF719
:10537C0054F754F754F754F754F74CF74CF74CF7E1
:10538C004CF74CF754F754F74CF74CF754F754F7D9
:10539C004CF754F74CF754F754F754F754F754F7B9
:1053AC0054F754F7551754F754F754F754F754F778
:1053BC0054F754F74CF7551754F754F754F755174F
:1053CC0054F754F754F754F754F754F754F754F779
:1053DC0054F754F754F754F754F754F754F754F769
:1053EC0054F754F754F754F754F754F754F754F759
:1053FC0054F754F654F654F654F654F754F654F64F
:10540C00551654F654F754F754F65CF664F66D16CC
:10541C007D16851685377D376D165CF654F654F679
:10542C0054F654F654F654F654F654F654F654F620
:10543C005CF754F654F654F654F65D175D1754F6B3
:10544C0011E811E81229126B12AC1AEE1B2F1B700B
:10545C001BB21BD324342C762CB72CD82CD82CF87C
:10546C0024F824F82CD82CD82CF82CF82CD834F878
:10547C002CD82CD82CF82CD82CD82CD82CD82CF8C0
:10548C002CF82CF834F82CF834F834F834F83CF8C0
:10549C0034F834F834F834F834F83CF844F8451857
:1054AC00451834F834F834F83CF844F83CF834F83F
:1054BC0034F834F834F834F834F834F834F834F880
:1054CC0034F834F834F834F834F8351834F834F84F
:1054DC0034F834F834F834F834F834F8351835181E
:1054EC0034F834F834F834F83518351834F82CF816
:1054FC0034F834F834F834F834F834F834F834F840
:10550C0034F83D1834F834F834F834F834F834F806
:10551C0034F834F834F834F734F83CF73CF83CF809
:10552C003CF834F834F83CF83CF844F844F844F8C7
:10553C004D184D1855184D183D183CF73CF73CF8D4
:10554C003CF83CF83CF73CF73D183CF73CF73CF793
:10555C003CF73CF73CF73CF73D173CF844F84D174B
:10556C005D16B69BDF1CB5558BAF830D82AC7A4AAA
:10557C00822A81E98A8A93ED9C70A4D2B533ACB2AD
:10558C009C0F938E82EB8AEC8ACC8ACC8ACC92AC20
:10559C0092ACA38FCD35D5B7CD76C576CE19BE9B43
:1055AC005D16451744F74CF744F7451744F744F795
:1055BC0044F744F744F744F744F744F745174517C5
:1055CC004D174CF74CF74CF74CF74CF74CF74D1775
:1055DC004D174D174D174D174CF74CF74D174CF702
:1055EC004CF74CF74CF74CF74CF74CF74CF74CF797
:1055FC004CF74CF74D174CF7551754F74D174CF714
:10560C004CF754F754F754F74CF754F7551754F725
:10561C0055175517551754F754F754F754F754F7C3
:10562C0054F754F754F754F754F754F75CF75CF706
:10563C0054F754F74CF754F754F754F754F75517ED
:10564C0054F754F755175517551754F754F754F793
:10565C0054F754F754F7551754F754F754F754F7C5
:10566C0054F754F754F754F754F754F754F754F7D6
:10567C0054F754F654F654F654F654F754F65D16A3
:10568C006516651664F65CF65CF6651675167D3661
:10569C0085368D368D378537751764F654F654F686
:1056AC0054F654F654F654F654F654F654F654F69E
:1056BC00551654F654F654F65CF65D175D1754F611
:1056CC00220919E811E81229126B1AAC1ACD132F02
:1056DC0013701B921BD32434247624B72CD82CF8AB
:1056EC0024F824D82CF82CD82CD82CF834F834F8EE
:1056FC002CD82CF82CF82CF82CF82CF82CF82CF89E
:10570C0034F82CD82CF82CF834F834F83CF83CF855
:10571C0034F834F834F834F83CF844F845184D189B
:10572C003CF83D18351834F83CF84D193CF834F871
:10573C0034F834F834F834F835183518351834F89A
:10574C0034F834F834F834F834F8351834F83518AB
:10575C00351834F834F834F8351834F83518351859
:10576C0034F834F834F834F83518351834F835186A
:10577C0034F834F834F834F83D183D1934F83D1841
:10578C003D183D1834F834F834F834F834F834F85B
:10579C0034F834F834F834F834F83CF83CF83CF885
:1057AC003CF83CF83CF834F83CF83CF83CF844F84D
:1057BC00451845174CF844F845183CF73D183CF88B
:1057CC003CF83CF83CF73D183D183CF73D173D18AC
:1057DC003D183D183CF73D173D173CF844F84CF785
:1057EC009E3ADF1DB5768BB07AED7AAC828C822A2C
:1057FC0081E981C88ACB944E944E94B09CD09CD1B4
:10580C009CB19C7093CE8B2C8AEC8ACC8ACC8A8BE4
:10581C00928BBC10D555CD56C555C535CD97DEBC34
:10582C009E3A451645174CF74517451744F74CF764
:10583C004D1744F744F744F744F7451745174517F8
:10584C004D174D174CF74CF74CF74CF84CF74D17D0
:10585C004D174D1744F74D174CF74CF74CF74CF7C9
:10586C004CF74CF74CF74CF74CF74CF74D174D17D2
:10587C004CF74CF74CF74CF7551754F74D1754F7AA
:10588C0054F754F754F754F754F754F754F754F7B4
:10589C0055175517551855175517551754F754F7DD
:1058AC0054F754F754F75CF75CF765376D376D3781
:1058BC005D1755174CF7551754F754F754F7551700
:1058CC00551754F755175517551754F754F754F7F0
:1058DC0054F754F754F7551754F754F7551754F722
:1058EC005CF75CF754F754F75517551754F754F702
:1058FC00551754F754F654F654F654F75CF76D17E5
:10590C007D577D5675366D1664F6751685378D3751
:10591C009536953695368517751764F654F654F703
:10592C0055175D1754F65516551654F654F654F68D
:10593C0054F654F655175D175D175CF754F65D1762
:10594C00220921E911C811E81209122A126B12CD91
:10595C001B0E1B501B911BD31C1424552CB72CD77E
:10596C002CD82CF82CD82CD82CD82CD834F834F89B
:10597C0034F82CF82CD82CD834F82CF82CF82CD84B
:10598C0034F834F834F834F834F83CF83CF834F89B
:10599C00351834F83CF83CF844F84D1945193D18C5
:1059AC003D1835183CF844F84D1944F83CF834F8D7
:1059BC0034F8351834F834F834F834F834F834F85A
:1059CC0034F834F834F834F8351834F8351834F829
:1059DC00351835183518351834F834F834F83518B6
:1059EC003518351834F835183518351834F834F8A6
:1059FC0034F834F834F834F83D183D183D193D1896
:105A0C003D183D183518351835183D18351835180A
:105A1C003518351834F834F834F834F834F83CF8D0
:105A2C003CF83CF83CF83CF83CF83D183D183CF888
:105A3C003CF83CF844F845183D183CF73CF73D1849
:105A4C0045183D183D183CF83D183D183D183D18BB
:105A5C003D183D183D183D183D173D184D1785B89C
:105A6C00E75EBD988BD072CC726B828B824A8209B6
:105A7C0081C881E793CDAD728BCC4A05524662C981
:105A8C00738C840E9C70A4D19C7093CE82EB9B2D56
:105A9C00A34ECCB3CCF4C4F4C515C515CD77DE3903
:105AAC00E73D7D9845174517451745184CF74D1799
:105ABC004D174D174517451745174D174D174D17D2
:105ACC004D174D174CF74CF74D184D174D174D17EB
